{
  "_format": "hh-sol-artifact-1",
  "contractName": "HealthQueryEngine",
  "sourceName": "contracts/HealthQueryEngine.sol",
  "abi": [
    {
      "inputs": [
        {
          "internalType": "address",
          "name": "_registry",
          "type": "address"
        }
      ],
      "stateMutability": "nonpayable",
      "type": "constructor"
    },
    {
      "inputs": [],
      "name": "ZamaProtocolUnsupported",
      "type": "error"
    },
    {
      "anonymous": false,
      "inputs": [
        {
          "indexed": true,
          "internalType": "address",
          "name": "institution",
          "type": "address"
        },
        {
          "indexed": false,
          "internalType": "uint8",
          "name": "queryType",
          "type": "uint8"
        },
        {
          "indexed": false,
          "internalType": "uint256",
          "name": "cohortSize",
          "type": "uint256"
        }
      ],
      "name": "AggregateQueryCompleted",
      "type": "event"
    },
    {
      "anonymous": false,
      "inputs": [
        {
          "indexed": true,
          "internalType": "address",
          "name": "patient",
          "type": "address"
        },
        {
          "indexed": true,
          "internalType": "address",
          "name": "provider",
          "type": "address"
        },
        {
          "indexed": true,
          "internalType": "bytes32",
          "name": "checkId",
          "type": "bytes32"
        }
      ],
      "name": "EligibilityChecked",
      "type": "event"
    },
    {
      "inputs": [
        {
          "internalType": "bytes32",
          "name": "checkId",
          "type": "bytes32"
        }
      ],
      "name": "checkExists",
      "outputs": [
        {
          "internalType": "bool",
          "name": "",
          "type": "bool"
        }
      ],
      "stateMutability": "view",
      "type": "function"
    },
    {
      "inputs": [],
      "name": "confidentialProtocolId",
      "outputs": [
        {
          "internalType": "uint256",
          "name": "",
          "type": "uint256"
        }
      ],
      "stateMutability": "view",
      "type": "function"
    },
    {
      "inputs": [
        {
          "internalType": "bytes32",
          "name": "checkId",
          "type": "bytes32"
        }
      ],
      "name": "getEligibilityResult",
      "outputs": [
        {
          "internalType": "ebool",
          "name": "",
          "type": "bytes32"
        }
      ],
      "stateMutability": "view",
      "type": "function"
    },
    {
      "inputs": [],
      "name": "insuranceModule",
      "outputs": [
        {
          "internalType": "address",
          "name": "",
          "type": "address"
        }
      ],
      "stateMutability": "view",
      "type": "function"
    },
    {
      "inputs": [],
      "name": "owner",
      "outputs": [
        {
          "internalType": "address",
          "name": "",
          "type": "address"
        }
      ],
      "stateMutability": "view",
      "type": "function"
    },
    {
      "inputs": [],
      "name": "registry",
      "outputs": [
        {
          "internalType": "contract PatientRegistry",
          "name": "",
          "type": "address"
        }
      ],
      "stateMutability": "view",
      "type": "function"
    },
    {
      "inputs": [],
      "name": "researchRegistry",
      "outputs": [
        {
          "internalType": "contract ResearchRegistry",
          "name": "",
          "type": "address"
        }
      ],
      "stateMutability": "view",
      "type": "function"
    },
    {
      "inputs": [
        {
          "internalType": "address[]",
          "name": "cohort",
          "type": "address[]"
        },
        {
          "internalType": "uint8",
          "name": "queryType",
          "type": "uint8"
        }
      ],
      "name": "runAggregateQuery",
      "outputs": [
        {
          "internalType": "euint64",
          "name": "",
          "type": "bytes32"
        }
      ],
      "stateMutability": "nonpayable",
      "type": "function"
    },
    {
      "inputs": [
        {
          "internalType": "address",
          "name": "patient",
          "type": "address"
        },
        {
          "internalType": "uint64",
          "name": "maxRiskThreshold",
          "type": "uint64"
        }
      ],
      "name": "runEligibilityCheck",
      "outputs": [
        {
          "internalType": "bytes32",
          "name": "checkId",
          "type": "bytes32"
        }
      ],
      "stateMutability": "nonpayable",
      "type": "function"
    },
    {
      "inputs": [
        {
          "internalType": "address",
          "name": "_insuranceModule",
          "type": "address"
        }
      ],
      "name": "setInsuranceModule",
      "outputs": [],
      "stateMutability": "nonpayable",
      "type": "function"
    },
    {
      "inputs": [
        {
          "internalType": "address",
          "name": "_researchRegistry",
          "type": "address"
        }
      ],
      "name": "setResearchRegistry",
      "outputs": [],
      "stateMutability": "nonpayable",
      "type": "function"
    }
  ],
  "bytecode": "0x60c060405234801561000f575f5ffd5b5060405161168738038061168783398101604081905261002e916102ef565b6100e2610039610140565b80517f9e7b61f58c47dc699ac88507c4f5bb9f121c03808c5676a8078fe583e464970080546001600160a01b03199081166001600160a01b039384161790915560208301517f9e7b61f58c47dc699ac88507c4f5bb9f121c03808c5676a8078fe583e46497018054831691841691909117905560408301517f9e7b61f58c47dc699ac88507c4f5bb9f121c03808c5676a8078fe583e46497028054909216921691909117905550565b6001600160a01b03811661012b5760405162461bcd60e51b815260206004820152600c60248201526b5a65726f206164647265737360a01b604482015260640160405180910390fd5b3360a0526001600160a01b031660805261031c565b604080516060810182525f8082526020820181905291810191909152466001036101d9575060408051606080820183525f8083526020808401829052928401528251908101835273ca2e8f1f656cd25c01f05d0b243ab1ecd4a8ffb6815273d82385dada1ae3e969447f20a3164f6213100e75918101919091527377627828a55156b04ac0dc0eb30467f1a552bb039181019190915290565b4662aa36a703610258575060408051606080820183525f8083526020808401829052928401528251908101835273f0ffdc93b7e186bc2f8cb3daa75d86d1930a433d81527392c920834ec8941d2c77d188936e1f7a6f49c1279181019190915273be0e383937d564d7ff0bc3b46c51f0bf8d5c311a9181019190915290565b46617a69036102d6575060408051606080820183525f808352602080840182905292840152825190810183527350157cffd6bbfa2dece204a89ec419c23ef5755d815273e3a9105a3a932253a70f126eb1e3b589c643dd249181019190915273be0e383937d564d7ff0bc3b46c51f0bf8d5c311a9181019190915290565b6040516373cac13b60e01b815260040160405180910390fd5b5f602082840312156102ff575f5ffd5b81516001600160a01b0381168114610315575f5ffd5b9392505050565b60805160a0516113276103605f395f81816101a60152818161020c01526109cd01525f8181610177015281816104df0152818161070a01526107e201526113275ff3fe608060405234801561000f575f5ffd5b50600436106100c4575f3560e01c80637b1039991161007d5780639d4c3c0d116100585780639d4c3c0d146101c8578063d80408f1146101db578063ecc2783a146101ee575f5ffd5b80637b103999146101725780638927b030146101995780638da5cb5b146101a1575f5ffd5b806341137bd1116100ad57806341137bd114610103578063411ecb671461012d57806348a29a721461015f575f5ffd5b8063131ba29f146100c85780632736cf10146100dd575b5f5ffd5b6100db6100d6366004611115565b610201565b005b6100f06100eb36600461112e565b6102de565b6040519081526020015b60405180910390f35b5f54610115906001600160a01b031681565b6040516001600160a01b0390911681526020016100fa565b61014f61013b36600461112e565b5f9081526003602052604090205460ff1690565b60405190151581526020016100fa565b600154610115906001600160a01b031681565b6101157f000000000000000000000000000000000000000000000000000000000000000081565b6100f061034d565b6101157f000000000000000000000000000000000000000000000000000000000000000081565b6100f06101d6366004611145565b61035b565b6100f06101e93660046111cc565b6106e9565b6100db6101fc366004611115565b6109c2565b336001600160a01b037f0000000000000000000000000000000000000000000000000000000000000000161461026a5760405162461bcd60e51b81526020600482015260096024820152682737ba1037bbb732b960b91b60448201526064015b60405180910390fd5b6001600160a01b0381166102af5760405162461bcd60e51b815260206004820152600c60248201526b5a65726f206164647265737360a01b6044820152606401610261565b6001805473ffffffffffffffffffffffffffffffffffffffff19166001600160a01b0392909216919091179055565b5f8181526003602052604081205460ff1661033b5760405162461bcd60e51b815260206004820152600f60248201527f436865636b206e6f7420666f756e6400000000000000000000000000000000006044820152606401610261565b505f9081526002602052604090205490565b5f610356610a99565b905090565b5f80546001600160a01b03166103b35760405162461bcd60e51b815260206004820152601860248201527f52657365617263685265676973747279206e6f742073657400000000000000006044820152606401610261565b5f5460405163673448dd60e01b81523360048201526001600160a01b039091169063673448dd90602401602060405180830381865afa1580156103f8573d5f5f3e3d5ffd5b505050506040513d601f19601f8201168201806040525081019061041c919061121c565b6104685760405162461bcd60e51b815260206004820152601860248201527f4e6f7420617070726f76656420696e737469747574696f6e00000000000000006044820152606401610261565b60018260ff1611156104bc5760405162461bcd60e51b815260206004820152601260248201527f556e6b6e6f776e207175657279207479706500000000000000000000000000006044820152606401610261565b5f6104c65f610acd565b90506104d181610ae9565b505f5b84811015610640575f7f00000000000000000000000000000000000000000000000000000000000000006001600160a01b0316631860717488888581811061051e5761051e611235565b90506020020160208101906105339190611115565b6040517fffffffff0000000000000000000000000000000000000000000000000000000060e084901b1681526001600160a01b03909116600482015260240160c060405180830381865afa15801561058d573d5f5f3e3d5ffd5b505050506040513d601f19601f820116820180604052508101906105b19190611249565b80519091506105c05750610638565b5f8560ff165f036105df5781516105d8906046610b09565b90506105ff565b5f6105ef83602001516001610b38565b90506105fb815f610b09565b9150505b5f61061c8261060e6001610acd565b6106175f610acd565b610b60565b90506106288582610ba7565b945061063385610ae9565b505050505b6001016104d4565b5061064b8133610bd5565b505f54604051638a2f555d60e01b81523360048201526001600160a01b0390911690638a2f555d906024015f604051808303815f87803b15801561068d575f5ffd5b505af115801561069f573d5f5f3e3d5ffd5b50506040805160ff87168152602081018890523393507f1fd1f455b084e1e3054e1048041704cffd2370a776e0cf7079d1e8b4656c68ff92500160405180910390a2949350505050565b60405163128a31fb60e31b81526001600160a01b0383811660048301525f917f0000000000000000000000000000000000000000000000000000000000000000909116906394518fd890602401602060405180830381865afa158015610751573d5f5f3e3d5ffd5b505050506040513d601f19601f82011682018060405250810190610775919061121c565b6107c15760405162461bcd60e51b815260206004820152601460248201527f50617469656e74206e6f7420656e726f6c6c65640000000000000000000000006044820152606401610261565b6040516306181c5d60e21b81526001600160a01b0384811660048301525f917f00000000000000000000000000000000000000000000000000000000000000009091169063186071749060240160c060405180830381865afa158015610829573d5f5f3e3d5ffd5b505050506040513d601f19601f8201168201806040525081019061084d9190611249565b805190915061089e5760405162461bcd60e51b815260206004820152601a60248201527f5269736b2073636f7265206e6f7420696e697469616c697a65640000000000006044820152606401610261565b5f6108ac825f015185610bf8565b6040516bffffffffffffffffffffffff19606088811b8216602084015233901b1660348201524260488201527fffffffffffffffff00000000000000000000000000000000000000000000000060c087901b16606882015290915060700160408051601f1981840301815291815281516020928301205f8181526002845282812085905560039093529120805460ff19166001179055925061094d81610c20565b506001546001600160a01b031615610978576001546109769082906001600160a01b0316610c2f565b505b6109828133610c2f565b50604051839033906001600160a01b038816907fa1684e26235280a58972b90c1cea0d33ff0e4a139081ad59c301d5a3ca80a7fc905f90a4505092915050565b336001600160a01b037f00000000000000000000000000000000000000000000000000000000000000001614610a265760405162461bcd60e51b81526020600482015260096024820152682737ba1037bbb732b960b91b6044820152606401610261565b6001600160a01b038116610a6b5760405162461bcd60e51b815260206004820152600c60248201526b5a65726f206164647265737360a01b6044820152606401610261565b5f805473ffffffffffffffffffffffffffffffffffffffff19166001600160a01b0392909216919091179055565b5f46600103610aa85750600190565b4662aa36a703610ab9575061271190565b46617a6903610ac857505f1990565b505f90565b5f610ae38267ffffffffffffffff166005610c3e565b92915050565b5f81610afb57610af85f610acd565b91505b610b058230610cf3565b5090565b5f82610b1b57610b185f610acd565b92505b610b318367ffffffffffffffff84166001610d7c565b9392505050565b5f82610b4a57610b475f610acd565b92505b610b318367ffffffffffffffff84166001610e5f565b5f83610b7257610b6f5f610efc565b93505b82610b8357610b805f610acd565b92505b81610b9457610b915f610acd565b91505b610b9f848484610f17565b949350505050565b5f82610bb957610bb65f610acd565b92505b81610bca57610bc75f610acd565b91505b610b3183835f610fc0565b5f82610be757610be45f610acd565b92505b610bf18383610cf3565b5090919050565b5f82610c0a57610c075f610acd565b92505b610b318367ffffffffffffffff8416600161105d565b5f81610afb57610af85f610efc565b5f82610be757610be45f610efc565b7f9e7b61f58c47dc699ac88507c4f5bb9f121c03808c5676a8078fe583e464970154604051639cd07acb60e01b81525f917f9e7b61f58c47dc699ac88507c4f5bb9f121c03808c5676a8078fe583e4649700916001600160a01b0390911690639cd07acb90610cb390879087906004016112d3565b6020604051808303815f875af1158015610ccf573d5f5f3e3d5ffd5b505050506040513d601f19601f82011682018060405250810190610b9f9190611303565b5f7f9e7b61f58c47dc699ac88507c4f5bb9f121c03808c5676a8078fe583e46497008054604051635ca4b5b160e11b8152600481018690526001600160a01b03858116602483015292935091169063b9496b62906044015f604051808303815f87803b158015610d61575f5ffd5b505af1158015610d73573d5f5f3e3d5ffd5b50505050505050565b5f5f8215610d8f5750600160f81b610d92565b505f5b7f9e7b61f58c47dc699ac88507c4f5bb9f121c03808c5676a8078fe583e4649701546040516385362ee760e01b815260048101879052602481018690526001600160f81b0319831660448201527f9e7b61f58c47dc699ac88507c4f5bb9f121c03808c5676a8078fe583e4649700916001600160a01b0316906385362ee7906064015b6020604051808303815f875af1158015610e31573d5f5f3e3d5ffd5b505050506040513d601f19601f82011682018060405250810190610e559190611303565b9695505050505050565b5f5f8215610e725750600160f81b610e75565b505f5b7f9e7b61f58c47dc699ac88507c4f5bb9f121c03808c5676a8078fe583e46497015460405163d99882d560e01b815260048101879052602481018690526001600160f81b0319831660448201527f9e7b61f58c47dc699ac88507c4f5bb9f121c03808c5676a8078fe583e4649700916001600160a01b03169063d99882d590606401610e15565b5f610ae382610f0b575f610f0e565b60015b60ff165f610c3e565b5f807f9e7b61f58c47dc699ac88507c4f5bb9f121c03808c5676a8078fe583e46497006001810154604051637702dcff60e01b81526004810188905260248101879052604481018690529192506001600160a01b031690637702dcff906064016020604051808303815f875af1158015610f93573d5f5f3e3d5ffd5b505050506040513d601f19601f82011682018060405250810190610fb79190611303565b95945050505050565b5f5f8215610fd35750600160f81b610fd6565b505f5b7f9e7b61f58c47dc699ac88507c4f5bb9f121c03808c5676a8078fe583e46497015460405163022f65e760e31b815260048101879052602481018690526001600160f81b0319831660448201527f9e7b61f58c47dc699ac88507c4f5bb9f121c03808c5676a8078fe583e4649700916001600160a01b03169063117b2f3890606401610e15565b5f5f82156110705750600160f81b611073565b505f5b7f9e7b61f58c47dc699ac88507c4f5bb9f121c03808c5676a8078fe583e464970154604051631d44e90160e21b815260048101879052602481018690526001600160f81b0319831660448201527f9e7b61f58c47dc699ac88507c4f5bb9f121c03808c5676a8078fe583e4649700916001600160a01b031690637513a40490606401610e15565b80356001600160a01b0381168114611110575f5ffd5b919050565b5f60208284031215611125575f5ffd5b610b31826110fa565b5f6020828403121561113e575f5ffd5b5035919050565b5f5f5f60408486031215611157575f5ffd5b833567ffffffffffffffff81111561116d575f5ffd5b8401601f8101861361117d575f5ffd5b803567ffffffffffffffff811115611193575f5ffd5b8660208260051b84010111156111a7575f5ffd5b60209182019450925084013560ff811681146111c1575f5ffd5b809150509250925092565b5f5f604083850312156111dd575f5ffd5b6111e6836110fa565b9150602083013567ffffffffffffffff81168114611202575f5ffd5b809150509250929050565b80518015158114611110575f5ffd5b5f6020828403121561122c575f5ffd5b610b318261120d565b634e487b7160e01b5f52603260045260245ffd5b5f60c082840312801561125a575f5ffd5b5060405160c0810167ffffffffffffffff8111828210171561128a57634e487b7160e01b5f52604160045260245ffd5b604090815283518252602080850151908301528381015190820152606080840151908201526112bb6080840161120d565b608082015260a0928301519281019290925250919050565b82815260408101605483106112f657634e487b7160e01b5f52602160045260245ffd5b8260208301529392505050565b5f60208284031215611313575f5ffd5b505191905056fea164736f6c634300081c000a",
  "linkReferences": {},
  "deployedLinkReferences": {}
}