{
  "_format": "hh-sol-artifact-1",
  "contractName": "InsuranceModule",
  "sourceName": "contracts/InsuranceModule.sol",
  "abi": [
    {
      "inputs": [
        {
          "internalType": "address",
          "name": "_queryEngine",
          "type": "address"
        }
      ],
      "stateMutability": "nonpayable",
      "type": "constructor"
    },
    {
      "inputs": [],
      "name": "ZamaProtocolUnsupported",
      "type": "error"
    },
    {
      "anonymous": false,
      "inputs": [
        {
          "indexed": true,
          "internalType": "address",
          "name": "patient",
          "type": "address"
        },
        {
          "indexed": true,
          "internalType": "bytes32",
          "name": "checkId",
          "type": "bytes32"
        },
        {
          "indexed": false,
          "internalType": "uint256",
          "name": "timestamp",
          "type": "uint256"
        }
      ],
      "name": "ClaimProcessed",
      "type": "event"
    },
    {
      "anonymous": false,
      "inputs": [
        {
          "indexed": true,
          "internalType": "address",
          "name": "patient",
          "type": "address"
        },
        {
          "indexed": false,
          "internalType": "uint256",
          "name": "premium",
          "type": "uint256"
        },
        {
          "indexed": false,
          "internalType": "uint256",
          "name": "coverage",
          "type": "uint256"
        }
      ],
      "name": "PolicyCreated",
      "type": "event"
    },
    {
      "inputs": [],
      "name": "confidentialProtocolId",
      "outputs": [
        {
          "internalType": "uint256",
          "name": "",
          "type": "uint256"
        }
      ],
      "stateMutability": "view",
      "type": "function"
    },
    {
      "inputs": [
        {
          "internalType": "address",
          "name": "patient",
          "type": "address"
        },
        {
          "internalType": "uint256",
          "name": "premium",
          "type": "uint256"
        },
        {
          "internalType": "uint256",
          "name": "coverage",
          "type": "uint256"
        },
        {
          "internalType": "uint64",
          "name": "riskThreshold",
          "type": "uint64"
        }
      ],
      "name": "createPolicy",
      "outputs": [],
      "stateMutability": "nonpayable",
      "type": "function"
    },
    {
      "inputs": [
        {
          "internalType": "address",
          "name": "patient",
          "type": "address"
        }
      ],
      "name": "getPolicy",
      "outputs": [
        {
          "components": [
            {
              "internalType": "uint256",
              "name": "monthlyPremium",
              "type": "uint256"
            },
            {
              "internalType": "uint256",
              "name": "coverageAmount",
              "type": "uint256"
            },
            {
              "internalType": "uint64",
              "name": "riskThreshold",
              "type": "uint64"
            },
            {
              "internalType": "bool",
              "name": "active",
              "type": "bool"
            }
          ],
          "internalType": "struct InsuranceModule.Policy",
          "name": "",
          "type": "tuple"
        }
      ],
      "stateMutability": "view",
      "type": "function"
    },
    {
      "inputs": [
        {
          "internalType": "bytes32",
          "name": "checkId",
          "type": "bytes32"
        }
      ],
      "name": "isClaimProcessed",
      "outputs": [
        {
          "internalType": "bool",
          "name": "",
          "type": "bool"
        }
      ],
      "stateMutability": "view",
      "type": "function"
    },
    {
      "inputs": [],
      "name": "owner",
      "outputs": [
        {
          "internalType": "address",
          "name": "",
          "type": "address"
        }
      ],
      "stateMutability": "view",
      "type": "function"
    },
    {
      "inputs": [],
      "name": "paymentVault",
      "outputs": [
        {
          "internalType": "contract MockPaymentVault",
          "name": "",
          "type": "address"
        }
      ],
      "stateMutability": "view",
      "type": "function"
    },
    {
      "inputs": [
        {
          "internalType": "address",
          "name": "patient",
          "type": "address"
        },
        {
          "internalType": "bytes32",
          "name": "eligibilityCheckId",
          "type": "bytes32"
        }
      ],
      "name": "processClaimPayment",
      "outputs": [],
      "stateMutability": "nonpayable",
      "type": "function"
    },
    {
      "inputs": [],
      "name": "queryEngine",
      "outputs": [
        {
          "internalType": "contract HealthQueryEngine",
          "name": "",
          "type": "address"
        }
      ],
      "stateMutability": "view",
      "type": "function"
    },
    {
      "inputs": [
        {
          "internalType": "address",
          "name": "_vault",
          "type": "address"
        }
      ],
      "name": "setPaymentVault",
      "outputs": [],
      "stateMutability": "nonpayable",
      "type": "function"
    }
  ],
  "bytecode": "0x60c060405234801561000f575f5ffd5b5060405161100938038061100983398101604081905261002e916102ef565b6100e2610039610140565b80517f9e7b61f58c47dc699ac88507c4f5bb9f121c03808c5676a8078fe583e464970080546001600160a01b03199081166001600160a01b039384161790915560208301517f9e7b61f58c47dc699ac88507c4f5bb9f121c03808c5676a8078fe583e46497018054831691841691909117905560408301517f9e7b61f58c47dc699ac88507c4f5bb9f121c03808c5676a8078fe583e46497028054909216921691909117905550565b6001600160a01b03811661012b5760405162461bcd60e51b815260206004820152600c60248201526b5a65726f206164647265737360a01b604482015260640160405180910390fd5b336080526001600160a01b031660a05261031c565b604080516060810182525f8082526020820181905291810191909152466001036101d9575060408051606080820183525f8083526020808401829052928401528251908101835273ca2e8f1f656cd25c01f05d0b243ab1ecd4a8ffb6815273d82385dada1ae3e969447f20a3164f6213100e75918101919091527377627828a55156b04ac0dc0eb30467f1a552bb039181019190915290565b4662aa36a703610258575060408051606080820183525f8083526020808401829052928401528251908101835273f0ffdc93b7e186bc2f8cb3daa75d86d1930a433d81527392c920834ec8941d2c77d188936e1f7a6f49c1279181019190915273be0e383937d564d7ff0bc3b46c51f0bf8d5c311a9181019190915290565b46617a69036102d6575060408051606080820183525f808352602080840182905292840152825190810183527350157cffd6bbfa2dece204a89ec419c23ef5755d815273e3a9105a3a932253a70f126eb1e3b589c643dd249181019190915273be0e383937d564d7ff0bc3b46c51f0bf8d5c311a9181019190915290565b6040516373cac13b60e01b815260040160405180910390fd5b5f602082840312156102ff575f5ffd5b81516001600160a01b0381168114610315575f5ffd5b9392505050565b60805160a051610cb76103525f395f81816101ed015261043201525f81816101ae015281816105a601526107d20152610cb75ff3fe608060405234801561000f575f5ffd5b506004361061009f575f3560e01c806397ff5fb611610072578063e6dd2ee611610058578063e6dd2ee614610241578063e824f5a414610254578063ed3916f714610267575f5ffd5b806397ff5fb6146101e8578063bcacccbc1461020f575f5ffd5b80633791dc6a146100a35780637a66ad781461017e5780638927b030146101935780638da5cb5b146101a9575b5f5ffd5b6101366100b1366004610bb3565b604080516080810182525f808252602082018190529181018290526060810191909152506001600160a01b03165f9081526001602081815260409283902083516080810185528154815292810154918301919091526002015467ffffffffffffffff8116928201929092526801000000000000000090910460ff161515606082015290565b6040516101759190815181526020808301519082015260408083015167ffffffffffffffff169082015260609182015115159181019190915260800190565b60405180910390f35b61019161018c366004610bd3565b610279565b005b61019b61058d565b604051908152602001610175565b6101d07f000000000000000000000000000000000000000000000000000000000000000081565b6040516001600160a01b039091168152602001610175565b6101d07f000000000000000000000000000000000000000000000000000000000000000081565b61023161021d366004610bfb565b5f9081526002602052604090205460ff1690565b6040519015158152602001610175565b61019161024f366004610c12565b61059b565b610191610262366004610bb3565b6107c7565b5f546101d0906001600160a01b031681565b6001600160a01b0382165f9081526001602052604090206002015468010000000000000000900460ff166102f45760405162461bcd60e51b815260206004820152601060248201527f4e6f2061637469766520706f6c6963790000000000000000000000000000000060448201526064015b60405180910390fd5b5f8181526002602052604090205460ff16156103525760405162461bcd60e51b815260206004820152601760248201527f436c61696d20616c72656164792070726f63657373656400000000000000000060448201526064016102eb565b5f546001600160a01b03166103a95760405162461bcd60e51b815260206004820152601560248201527f5061796d656e74207661756c74206e6f7420736574000000000000000000000060448201526064016102eb565b5f818152600260208181526040808420805460ff191660019081179091556001600160a01b0387811686528184528286208351608081018552815481529281015494830194909452929093015467ffffffffffffffff81168483015268010000000000000000900460ff1615156060840152516302736cf160e41b8152600481018590529192917f000000000000000000000000000000000000000000000000000000000000000090911690632736cf1090602401602060405180830381865afa158015610479573d5f5f3e3d5ffd5b505050506040513d601f19601f8201168201806040525081019061049d9190610c63565b90505f6104bf826104b185602001516108bc565b6104ba5f6108bc565b6108d8565b90506104ca8161091f565b505f546104e19082906001600160a01b031661093f565b505f5460405163b345a9bf60e01b81526001600160a01b038781166004830152602482018490529091169063b345a9bf906044015f604051808303815f87803b15801561052c575f5ffd5b505af115801561053e573d5f5f3e3d5ffd5b5050505083856001600160a01b03167f2994c27ab584dad00589442d55076052950cf8d588f99bd6655052abf77aa3e34260405161057e91815260200190565b60405180910390a35050505050565b5f610596610962565b905090565b336001600160a01b037f000000000000000000000000000000000000000000000000000000000000000016146106015760405162461bcd60e51b815260206004820152600b60248201526a2737ba1034b739bab932b960a91b60448201526064016102eb565b6001600160a01b0384166106575760405162461bcd60e51b815260206004820152601460248201527f5a65726f2070617469656e74206164647265737300000000000000000000000060448201526064016102eb565b67ffffffffffffffff8211156106af5760405162461bcd60e51b815260206004820152601b60248201527f436f76657261676520657863656564732075696e743634206d6178000000000060448201526064016102eb565b5f82116106fe5760405162461bcd60e51b815260206004820152601960248201527f436f766572616765206d757374206265206e6f6e2d7a65726f0000000000000060448201526064016102eb565b60408051608081018252848152602080820185815267ffffffffffffffff8086168486019081526001606086018181526001600160a01b038c165f818152968390529588902096518755935190860155516002909401805492511515680100000000000000000268ffffffffffffffffff1990931694909116939093171790915590517f93aceb1c5e55aa194781a0423a101b97efa4a051e8d2fc2ba332ca75f4e4b6a7906107b99086908690918252602082015260400190565b60405180910390a250505050565b336001600160a01b037f0000000000000000000000000000000000000000000000000000000000000000161461082d5760405162461bcd60e51b815260206004820152600b60248201526a2737ba1034b739bab932b960a91b60448201526064016102eb565b6001600160a01b0381166108835760405162461bcd60e51b815260206004820152600c60248201527f5a65726f2061646472657373000000000000000000000000000000000000000060448201526064016102eb565b5f80547fffffffffffffffffffffffff0000000000000000000000000000000000000000166001600160a01b0392909216919091179055565b5f6108d28267ffffffffffffffff166005610996565b92915050565b5f836108ea576108e75f610a4b565b93505b826108fb576108f85f6108bc565b92505b8161090c576109095f6108bc565b91505b610917848484610a66565b949350505050565b5f816109315761092e5f6108bc565b91505b61093b8230610b0f565b5090565b5f826109515761094e5f6108bc565b92505b61095b8383610b0f565b5090919050565b5f466001036109715750600190565b4662aa36a703610982575061271190565b46617a690361099157505f1990565b505f90565b7f9e7b61f58c47dc699ac88507c4f5bb9f121c03808c5676a8078fe583e464970154604051639cd07acb60e01b81525f917f9e7b61f58c47dc699ac88507c4f5bb9f121c03808c5676a8078fe583e4649700916001600160a01b0390911690639cd07acb90610a0b9087908790600401610c7a565b6020604051808303815f875af1158015610a27573d5f5f3e3d5ffd5b505050506040513d601f19601f820116820180604052508101906109179190610c63565b5f6108d282610a5a575f610a5d565b60015b60ff165f610996565b5f807f9e7b61f58c47dc699ac88507c4f5bb9f121c03808c5676a8078fe583e46497006001810154604051637702dcff60e01b81526004810188905260248101879052604481018690529192506001600160a01b031690637702dcff906064016020604051808303815f875af1158015610ae2573d5f5f3e3d5ffd5b505050506040513d601f19601f82011682018060405250810190610b069190610c63565b95945050505050565b5f7f9e7b61f58c47dc699ac88507c4f5bb9f121c03808c5676a8078fe583e46497008054604051635ca4b5b160e11b8152600481018690526001600160a01b03858116602483015292935091169063b9496b62906044015f604051808303815f87803b158015610b7d575f5ffd5b505af1158015610b8f573d5f5f3e3d5ffd5b50505050505050565b80356001600160a01b0381168114610bae575f5ffd5b919050565b5f60208284031215610bc3575f5ffd5b610bcc82610b98565b9392505050565b5f5f60408385031215610be4575f5ffd5b610bed83610b98565b946020939093013593505050565b5f60208284031215610c0b575f5ffd5b5035919050565b5f5f5f5f60808587031215610c25575f5ffd5b610c2e85610b98565b93506020850135925060408501359150606085013567ffffffffffffffff81168114610c58575f5ffd5b939692955090935050565b5f60208284031215610c73575f5ffd5b5051919050565b8281526040810160548310610c9d57634e487b7160e01b5f52602160045260245ffd5b826020830152939250505056fea164736f6c634300081c000a",
  "linkReferences": {},
  "deployedLinkReferences": {}
}