{
  "_format": "hh-sol-artifact-1",
  "contractName": "PatientRegistry",
  "sourceName": "contracts/PatientRegistry.sol",
  "abi": [
    {
      "inputs": [],
      "stateMutability": "nonpayable",
      "type": "constructor"
    },
    {
      "inputs": [
        {
          "internalType": "bytes32",
          "name": "handle",
          "type": "bytes32"
        },
        {
          "internalType": "address",
          "name": "sender",
          "type": "address"
        }
      ],
      "name": "SenderNotAllowedToUseHandle",
      "type": "error"
    },
    {
      "inputs": [],
      "name": "ZamaProtocolUnsupported",
      "type": "error"
    },
    {
      "anonymous": false,
      "inputs": [
        {
          "indexed": true,
          "internalType": "address",
          "name": "patient",
          "type": "address"
        },
        {
          "indexed": true,
          "internalType": "address",
          "name": "grantee",
          "type": "address"
        },
        {
          "indexed": false,
          "internalType": "uint8",
          "name": "fieldIndex",
          "type": "uint8"
        }
      ],
      "name": "FieldAccessDelegated",
      "type": "event"
    },
    {
      "anonymous": false,
      "inputs": [
        {
          "indexed": true,
          "internalType": "address",
          "name": "patient",
          "type": "address"
        },
        {
          "indexed": true,
          "internalType": "uint256",
          "name": "timestamp",
          "type": "uint256"
        }
      ],
      "name": "PatientRegistered",
      "type": "event"
    },
    {
      "anonymous": false,
      "inputs": [
        {
          "indexed": true,
          "internalType": "address",
          "name": "patient",
          "type": "address"
        },
        {
          "indexed": true,
          "internalType": "address",
          "name": "provider",
          "type": "address"
        }
      ],
      "name": "ProviderAuthorized",
      "type": "event"
    },
    {
      "anonymous": false,
      "inputs": [
        {
          "indexed": true,
          "internalType": "address",
          "name": "queryEngine",
          "type": "address"
        }
      ],
      "name": "QueryEngineSet",
      "type": "event"
    },
    {
      "anonymous": false,
      "inputs": [
        {
          "indexed": true,
          "internalType": "address",
          "name": "patient",
          "type": "address"
        },
        {
          "indexed": true,
          "internalType": "uint256",
          "name": "timestamp",
          "type": "uint256"
        }
      ],
      "name": "RiskScoreUpdated",
      "type": "event"
    },
    {
      "inputs": [
        {
          "internalType": "address",
          "name": "provider",
          "type": "address"
        }
      ],
      "name": "authorizeProvider",
      "outputs": [],
      "stateMutability": "nonpayable",
      "type": "function"
    },
    {
      "inputs": [
        {
          "internalType": "address",
          "name": "patient",
          "type": "address"
        },
        {
          "internalType": "address",
          "name": "grantee",
          "type": "address"
        }
      ],
      "name": "checkRiskScoreACL",
      "outputs": [
        {
          "internalType": "bool",
          "name": "contractHasACL",
          "type": "bool"
        },
        {
          "internalType": "bool",
          "name": "granteeHasACL",
          "type": "bool"
        }
      ],
      "stateMutability": "view",
      "type": "function"
    },
    {
      "inputs": [],
      "name": "confidentialProtocolId",
      "outputs": [
        {
          "internalType": "uint256",
          "name": "",
          "type": "uint256"
        }
      ],
      "stateMutability": "view",
      "type": "function"
    },
    {
      "inputs": [
        {
          "internalType": "address",
          "name": "patient",
          "type": "address"
        }
      ],
      "name": "getPatientRecord",
      "outputs": [
        {
          "components": [
            {
              "internalType": "euint64",
              "name": "riskScore",
              "type": "bytes32"
            },
            {
              "internalType": "euint64",
              "name": "conditionFlags",
              "type": "bytes32"
            },
            {
              "internalType": "euint64",
              "name": "age",
              "type": "bytes32"
            },
            {
              "internalType": "euint64",
              "name": "medCount",
              "type": "bytes32"
            },
            {
              "internalType": "bool",
              "name": "enrolled",
              "type": "bool"
            },
            {
              "internalType": "uint256",
              "name": "lastUpdated",
              "type": "uint256"
            }
          ],
          "internalType": "struct PatientRegistry.PatientRecord",
          "name": "",
          "type": "tuple"
        }
      ],
      "stateMutability": "view",
      "type": "function"
    },
    {
      "inputs": [
        {
          "internalType": "address",
          "name": "grantee",
          "type": "address"
        },
        {
          "internalType": "uint8",
          "name": "fieldIndex",
          "type": "uint8"
        }
      ],
      "name": "grantDelegatedFieldAccess",
      "outputs": [],
      "stateMutability": "nonpayable",
      "type": "function"
    },
    {
      "inputs": [
        {
          "internalType": "address",
          "name": "patient",
          "type": "address"
        }
      ],
      "name": "isEnrolled",
      "outputs": [
        {
          "internalType": "bool",
          "name": "",
          "type": "bool"
        }
      ],
      "stateMutability": "view",
      "type": "function"
    },
    {
      "inputs": [
        {
          "internalType": "address",
          "name": "",
          "type": "address"
        },
        {
          "internalType": "address",
          "name": "",
          "type": "address"
        }
      ],
      "name": "providerAuthorized",
      "outputs": [
        {
          "internalType": "bool",
          "name": "",
          "type": "bool"
        }
      ],
      "stateMutability": "view",
      "type": "function"
    },
    {
      "inputs": [],
      "name": "queryEngineAddress",
      "outputs": [
        {
          "internalType": "address",
          "name": "",
          "type": "address"
        }
      ],
      "stateMutability": "view",
      "type": "function"
    },
    {
      "inputs": [
        {
          "internalType": "externalEuint64",
          "name": "_riskScore",
          "type": "bytes32"
        },
        {
          "internalType": "bytes",
          "name": "_riskProof",
          "type": "bytes"
        },
        {
          "internalType": "externalEuint64",
          "name": "_conditionFlags",
          "type": "bytes32"
        },
        {
          "internalType": "bytes",
          "name": "_flagsProof",
          "type": "bytes"
        },
        {
          "internalType": "externalEuint64",
          "name": "_age",
          "type": "bytes32"
        },
        {
          "internalType": "bytes",
          "name": "_ageProof",
          "type": "bytes"
        },
        {
          "internalType": "externalEuint64",
          "name": "_medCount",
          "type": "bytes32"
        },
        {
          "internalType": "bytes",
          "name": "_medProof",
          "type": "bytes"
        }
      ],
      "name": "registerPatient",
      "outputs": [],
      "stateMutability": "nonpayable",
      "type": "function"
    },
    {
      "inputs": [
        {
          "internalType": "address",
          "name": "addr",
          "type": "address"
        }
      ],
      "name": "setQueryEngine",
      "outputs": [],
      "stateMutability": "nonpayable",
      "type": "function"
    },
    {
      "inputs": [
        {
          "internalType": "externalEuint64",
          "name": "newScore",
          "type": "bytes32"
        },
        {
          "internalType": "bytes",
          "name": "proof",
          "type": "bytes"
        }
      ],
      "name": "updateRiskScore",
      "outputs": [],
      "stateMutability": "nonpayable",
      "type": "function"
    }
  ],
  "bytecode": "0x608060405234801561000f575f5ffd5b506100c461001b6100db565b80517f9e7b61f58c47dc699ac88507c4f5bb9f121c03808c5676a8078fe583e464970080546001600160a01b03199081166001600160a01b039384161790915560208301517f9e7b61f58c47dc699ac88507c4f5bb9f121c03808c5676a8078fe583e46497018054831691841691909117905560408301517f9e7b61f58c47dc699ac88507c4f5bb9f121c03808c5676a8078fe583e46497028054909216921691909117905550565b600280546001600160a01b0319163317905561028a565b604080516060810182525f808252602082018190529181019190915246600103610174575060408051606080820183525f8083526020808401829052928401528251908101835273ca2e8f1f656cd25c01f05d0b243ab1ecd4a8ffb6815273d82385dada1ae3e969447f20a3164f6213100e75918101919091527377627828a55156b04ac0dc0eb30467f1a552bb039181019190915290565b4662aa36a7036101f3575060408051606080820183525f8083526020808401829052928401528251908101835273f0ffdc93b7e186bc2f8cb3daa75d86d1930a433d81527392c920834ec8941d2c77d188936e1f7a6f49c1279181019190915273be0e383937d564d7ff0bc3b46c51f0bf8d5c311a9181019190915290565b46617a6903610271575060408051606080820183525f808352602080840182905292840152825190810183527350157cffd6bbfa2dece204a89ec419c23ef5755d815273e3a9105a3a932253a70f126eb1e3b589c643dd249181019190915273901f8942346f7ab3a01f6d7613119bca447bb0309181019190915290565b6040516373cac13b60e01b815260040160405180910390fd5b611194806102975f395ff3fe608060405234801561000f575f5ffd5b50600436106100c4575f3560e01c80638927b0301161007d578063c23d05d711610058578063c23d05d714610200578063df000c0b14610213578063df7734e21461023e575f5ffd5b80638927b030146101a957806394518fd8146101bf578063a444aed7146101ed575f5ffd5b806318607174116100ad57806318607174146100f0578063390c3faf146101595780635ee2a69f14610196575f5ffd5b80630159bcd6146100c8578063112ea262146100dd575b5f5ffd5b6100db6100d6366004610eb6565b610268565b005b6100db6100eb366004610eb6565b61036d565b6101036100fe366004610eb6565b6104a5565b60405161015091905f60c0820190508251825260208301516020830152604083015160408301526060830151606083015260808301511515608083015260a083015160a083015292915050565b60405180910390f35b610186610167366004610ecf565b600160209081525f928352604080842090915290825290205460ff1681565b6040519015158152602001610150565b6100db6101a4366004610f00565b61053e565b6101b16106ea565b604051908152602001610150565b6101866101cd366004610eb6565b6001600160a01b03165f9081526020819052604090206004015460ff1690565b6100db6101fb366004610f7f565b6106f8565b6100db61020e366004610fc7565b610813565b600354610226906001600160a01b031681565b6040516001600160a01b039091168152602001610150565b61025161024c366004610ecf565b610a5d565b604080519215158352901515602083015201610150565b6002546001600160a01b031633146102c75760405162461bcd60e51b815260206004820152600960248201527f4e6f74206f776e6572000000000000000000000000000000000000000000000060448201526064015b60405180910390fd5b6001600160a01b03811661030c5760405162461bcd60e51b815260206004820152600c60248201526b5a65726f206164647265737360a01b60448201526064016102be565b600380547fffffffffffffffffffffffff0000000000000000000000000000000000000000166001600160a01b0383169081179091556040517f913c071df6feb8d332d25a3c61b296bf937ac97b176b226cbf290f1d7d3134a6905f90a250565b335f9081526020819052604090206004015460ff166103bd5760405162461bcd60e51b815260206004820152600c60248201526b139bdd08195b9c9bdb1b195960a21b60448201526064016102be565b6001600160a01b0381166104025760405162461bcd60e51b815260206004820152600c60248201526b5a65726f206164647265737360a01b60448201526064016102be565b335f908152602081905260409020805461041c9083610a97565b5061042b816001015483610a97565b5061043a816002015483610a97565b50610449816003015483610a97565b50335f8181526001602081815260408084206001600160a01b0388168086529252808420805460ff191690931790925590519092917fb3b6f6e18201133d5cef4ede0fc1c39f6d0cce4b39c7ce61e3497d3ba03bceed91a35050565b6104da6040518060c001604052805f81526020015f81526020015f81526020015f81526020015f151581526020015f81525090565b506001600160a01b03165f9081526020818152604091829020825160c0810184528154815260018201549281019290925260028101549282019290925260038201546060820152600482015460ff161515608082015260059091015460a082015290565b335f9081526020819052604090206004015460ff1661058e5760405162461bcd60e51b815260206004820152600c60248201526b139bdd08195b9c9bdb1b195960a21b60448201526064016102be565b6001600160a01b0382166105e45760405162461bcd60e51b815260206004820152600f60248201527f496e76616c6964206772616e746565000000000000000000000000000000000060448201526064016102be565b335f9081526020819052604081209060ff8316900361060f5780546106099084610a97565b506106a2565b8160ff1660010361062857610609816001015484610a97565b8160ff1660020361064157610609816002015484610a97565b8160ff1660030361065a57610609816003015484610a97565b60405162461bcd60e51b815260206004820152601360248201527f496e76616c6964206669656c6420696e6465780000000000000000000000000060448201526064016102be565b60405160ff831681526001600160a01b0384169033907f8916ff7837c0708875a36c12a43c027809186899303898e8ece0c509952696329060200160405180910390a3505050565b5f6106f3610abc565b905090565b335f9081526020819052604090206004015460ff166107485760405162461bcd60e51b815260206004820152600c60248201526b139bdd08195b9c9bdb1b195960a21b60448201526064016102be565b5f6107888484848080601f0160208091040260200160405190810160405280939291908181526020018383808284375f92019190915250610af092505050565b335f9081526020819052604090208181554260059091015590506107ab81610b56565b506107b68133610a97565b506003546001600160a01b0316156107e1576003546107df9082906001600160a01b0316610a97565b505b604051429033907f989734652020b9f7aa8a99ab7dc7855f58e3801fa39bd25dc5d83995cbd2464c905f90a350505050565b5f6108538d8d8d8080601f0160208091040260200160405190810160405280939291908181526020018383808284375f92019190915250610af092505050565b90505f6108958b8b8b8080601f0160208091040260200160405190810160405280939291908181526020018383808284375f92019190915250610af092505050565b90505f6108d78989898080601f0160208091040260200160405190810160405280939291908181526020018383808284375f92019190915250610af092505050565b90505f6109198787878080601f0160208091040260200160405190810160405280939291908181526020018383808284375f92019190915250610af092505050565b335f9081526020819052604090208581556001808201869055600282018590556003820183905560048201805460ff1916909117905542600582015590915061096185610b56565b5061096b84610b56565b5061097583610b56565b5061097f82610b56565b5061098a8533610a97565b506109958433610a97565b506109a08333610a97565b506109ab8233610a97565b506003546001600160a01b031615610a1e576003546109d49086906001600160a01b0316610a97565b506003546109ec9085906001600160a01b0316610a97565b50600354610a049084906001600160a01b0316610a97565b50600354610a1c9083906001600160a01b0316610a97565b505b604051429033907f1a1d2aec173b297857456d20be2671ece280e73079451a2a16142e4f58751e5c905f90a35050505050505050505050505050505050565b6001600160a01b0382165f908152602081905260408120548190610a818130610b76565b9250610a8d8185610b76565b9150509250929050565b5f82610aa957610aa65f610b88565b92505b610ab38383610b9e565b50815b92915050565b5f46600103610acb5750600190565b4662aa36a703610adc575061271190565b46617a6903610aeb57505f1990565b505f90565b5f81515f14610b0c57610b0583836005610c27565b9050610ab6565b825f819003610b2657610b1e5f610b88565b915050610ab6565b610b308133610d47565b610b0557604051630276b5d960e01b8152600481018290523360248201526044016102be565b5f81610b6857610b655f610b88565b91505b610b728230610b9e565b5090565b5f610b818383610d47565b9392505050565b5f610ab68267ffffffffffffffff166005610de6565b5f7f9e7b61f58c47dc699ac88507c4f5bb9f121c03808c5676a8078fe583e46497008054604051635ca4b5b160e11b8152600481018690526001600160a01b03858116602483015292935091169063b9496b62906044015f604051808303815f87803b158015610c0c575f5ffd5b505af1158015610c1e573d5f5f3e3d5ffd5b50505050505050565b7f9e7b61f58c47dc699ac88507c4f5bb9f121c03808c5676a8078fe583e46497015460405163045fc19560e11b81525f917f9e7b61f58c47dc699ac88507c4f5bb9f121c03808c5676a8078fe583e4649700916001600160a01b03909116906308bf832a90610ca09088903390899089906004016110e3565b6020604051808303815f875af1158015610cbc573d5f5f3e3d5ffd5b505050506040513d601f19601f82011682018060405250810190610ce0919061113d565b8154604051630f8e573b60e21b8152600481018390523360248201529193506001600160a01b031690633e395cec906044015f604051808303815f87803b158015610d29575f5ffd5b505af1158015610d3b573d5f5f3e3d5ffd5b50505050509392505050565b5f807f9e7b61f58c47dc699ac88507c4f5bb9f121c03808c5676a8078fe583e464970080546040516382027b6d60e01b8152600481018790526001600160a01b0386811660248301529293509116906382027b6d90604401602060405180830381865afa158015610dba573d5f5f3e3d5ffd5b505050506040513d601f19601f82011682018060405250810190610dde9190611154565b949350505050565b7f9e7b61f58c47dc699ac88507c4f5bb9f121c03808c5676a8078fe583e464970154604051639cd07acb60e01b81525f917f9e7b61f58c47dc699ac88507c4f5bb9f121c03808c5676a8078fe583e4649700916001600160a01b0390911690639cd07acb90610e5b9087908790600401611173565b6020604051808303815f875af1158015610e77573d5f5f3e3d5ffd5b505050506040513d601f19601f82011682018060405250810190610dde919061113d565b80356001600160a01b0381168114610eb1575f5ffd5b919050565b5f60208284031215610ec6575f5ffd5b610b8182610e9b565b5f5f60408385031215610ee0575f5ffd5b610ee983610e9b565b9150610ef760208401610e9b565b90509250929050565b5f5f60408385031215610f11575f5ffd5b610f1a83610e9b565b9150602083013560ff81168114610f2f575f5ffd5b809150509250929050565b5f5f83601f840112610f4a575f5ffd5b50813567ffffffffffffffff811115610f61575f5ffd5b602083019150836020828501011115610f78575f5ffd5b9250929050565b5f5f5f60408486031215610f91575f5ffd5b83359250602084013567ffffffffffffffff811115610fae575f5ffd5b610fba86828701610f3a565b9497909650939450505050565b5f5f5f5f5f5f5f5f5f5f5f5f6101008d8f031215610fe3575f5ffd5b8c359b5067ffffffffffffffff60208e01351115610fff575f5ffd5b61100f8e60208f01358f01610f3a565b909b50995060408d0135985067ffffffffffffffff60608e01351115611033575f5ffd5b6110438e60608f01358f01610f3a565b909850965060808d0135955067ffffffffffffffff60a08e01351115611067575f5ffd5b6110778e60a08f01358f01610f3a565b909550935060c08d0135925067ffffffffffffffff60e08e0135111561109b575f5ffd5b6110ab8e60e08f01358f01610f3a565b81935080925050509295989b509295989b509295989b565b605481106110df57634e487b7160e01b5f52602160045260245ffd5b9052565b8481526001600160a01b0384166020820152608060408201525f8351806080840152806020860160a085015e5f60a0828501015260a0601f19601f83011684010191505061113460608301846110c3565b95945050505050565b5f6020828403121561114d575f5ffd5b5051919050565b5f60208284031215611164575f5ffd5b81518015158114610b81575f5ffd5b82815260408101610b8160208301846110c356fea164736f6c634300081c000a",
  "linkReferences": {},
  "deployedLinkReferences": {}
}